S00E00005553415254312E7372656356
S11300000C942A000C943F000C943F000C943F0085
S11300100C943F000C943F000C943F000C943F0060
S11300200C943F000C943F000C943F000C943F0050
S11300300C943F000C943F000C943F000C943F0040
S11300400C943F000C943F000C943F000C943F0030
S11300500C943F0011241FBECFE5D4E0DEBFCDBF1A
S113006010E0A0E6B0E0E8ECF1E002C005900D92EB
S1130070A836B107D9F70E94AE000C94E2000C94A4
S113008000009C01207F33272C5F28BBE9EFF0E0C0
S11300903197F1F700C0000098B3945098BB829553
S11300A0807F8C5F88BB89EF90E00197F1F700C0F7
S11300B0000088B3845088BB08959C01207F3327B7
S11300C02B5F28BBE9EFF0E03197F1F700C00000A7
S11300D028B3245028BB82959295907F9827807FDF
S11300E098278B5F88BB89EF90E00197F1F700C0F8
S11300F0000088B3845088BB0895CF93DF93EC014C
S11301008881882339F0219690E00E945D008991CE
S11301108111FACFDF91CF91089582E090E00E949F
S1130120410088E290E00E9441008CE090E00E944F
S1130130410086E090E00E944100089588E18AB978
S11301408EE880BD83E389B910BC08955F9BFECF20
S11301508CB108955D9BFECF8CB908958EEF81BB61
S11301608FEF87BB0E948D000E949E0086E890E07E
S11301700E94410080E690E00E947D0083EF91E0C0
S11301800197F1F700C0000081E090E00E94410077
S113019083EC99E00197F1F700C0000085E890E056
S11301A00E9441000E94A600C82F0E94AA008C2F22
S11301B090E00E945D0087EA91E60197F1F700C0A4
S10B01C00000F0CFF894FFCF1A
S10B01C857454C434F4D45001F
S9030000FC
